:020000040800F2
:1000000000000120B53200088105000883050008C2
:100010008505000887050008890500080000000024
:100020000000000000000000000000006130000837
:100030008B05000800000000013100088D05000854
:10004000FD320008FD320008FD320008FD320008D4
:10005000FD320008FD320008FD320008FD320008C4
:10006000FD320008FD320008FD320008FD320008B4
:10007000FD320008FD320008FD320008FD320008A4
:10008000FD320008FD320008FD320008FD32000894
:10009000FD320008FD320008FD320008FD32000884
:1000A000FD320008FD320008FD320008FD32000874
:1000B000FD320008FD320008FD320008FD32000864
:1000C000FD320008FD320008FD320008FD32000854
:1000D000FD320008FD320008FD320008FD32000844
:1000E000FD320008FD320008FD320008FD32000834
:1000F000FD320008FD320008FD320008FD32000824
:10010000FD320008FD320008FD320008FD32000813
:10011000FD320008FD320008FD320008FD32000803
:10012000FD320008FD320008FD320008FD320008F3
:1001300000000000000000000000000000000000BF
:1001400000000000000000000000000000000000AF
:10015000000000000000000000000000000000009F
:10016000000000000000000000000000000000008F
:10017000000000000000000000000000000000007F
:10018000000000000000000000000000000000006F
:10019000000000000000000000000000000000005F
:1001A000000000000000000000000000000000004F
:1001B000000000000000000000000000000000003F
:1001C000000000000000000000000000000000002F
:1001D000000000000000000000000000000000001F
:0401E0005FF8E0F1F3
:1001F00010B5054C237833B9044B13B10448AFF361
:1002000000800123237010BD1000002000000000BA
:100210007433000808B5034B1BB103490348AFF31F
:10022000008008BD000000001400002074330008A6
:100230002DE9F04F8BB0002406940794089409949C
:10024000564B9A6942F040029A619A6902F0400264
:100250000192019A9A6942F010029A619A6902F039
:1002600010020292029A9A6942F004029A619A6913
:1002700002F004020392039A9A6942F008029A611A
:100280009A6902F008020492049A9A6942F02002E4
:100290009A619B6903F020030593059BDFF80091A9
:1002A000224649F6FF71484600F0C4FFDFF8F4B07B
:1002B00022464EF23E01584600F0BCFFDFF8E8A0AF
:1002C00022465821504600F0B5FFDFF8E080224674
:1002D00040F20721404600F0ADFF354F22464FF473
:1002E0004061384600F0A6FF49F6FF7306930126E9
:1002F000079608940225099506A9484600F07EFE57
:100300004EF23E03069307960894099506A95846AF
:1003100000F074FE072306930323079306A95046B3
:1003200000F06CFE5823069307960894099506A9D9
:10033000504600F063FE40F20723069307960894A8
:10034000099506A9404600F059FE4FF4C0430693B4
:100350000794089406A9484600F050FE4FF638432B
:1003600006930794089406A9404600F047FE4FF410
:100370007F7306930794089406A9384600F03EFE62
:100380004FF44063069307960894099506A93846EA
:1003900000F034FE0BB0BDE8F08F00BF001002404B
:1003A000001801400010014000080140000C01400D
:1003B0000014014008B54FF40041044800F040FF2C
:1003C0004FF47A7002F0B6FCF5E700BF0010014070
:1003D00072B6FEE708B50B480B4B03601023436071
:1003E00000238360C36003614361037643768376B1
:1003F000C3760377437700F0D9F900B908BDFFF75A
:10040000E7FF00BF240100200064004008B50A484F
:100410000A4B03604FF4E133436000238360C36001
:1004200003610C2242618361C36101F001F900B9EB
:1004300008BDFFF7CDFF00BF3400002000380140A9
:1004400008B50A480A4B03600A4B436000238360E7
:10045000C3604FF48042026143618361C361036200
:1004600000F062FF00B908BDFFF7B2FFD000002026
:1004700000540040A086010008B50D480D4B0360F4
:100480004FF48273436000238360C3600361436160
:100490004FF4007282613022C26103624362836260
:1004A0000A23C36201F01EF800B908BDFFF790FFF0
:1004B000780000200030014000B591B028220021D2
:1004C00006A802F01CFF00230193029303930493F8
:1004D0000593012206924FF4803307934FF40031C5
:1004E00008910A9202220D920E934FF4E0130F939B
:1004F00006A800F061FA80B90F230193022102914E
:10050000002303934FF480620492059301A800F046
:1005100099FC20B911B05DF804FBFFF759FFFFF714
:1005200057FF000008B500F00DFAFFF7C5FFFFF711
:100530007FFEFFF74FFFFFF769FFFFF781FFFFF730
:100540009BFF02F039FB084A0021084802F07CFBBF
:10055000074B1860074A0021074802F075FB074B5C
:10056000186002F04BFBFEE7CC330008B50300082F
:1005700030000020A8330008990700082C00002054
:10058000FEE7FEE7FEE7FEE7FEE7704708B500F08E
:10059000EBF902F0A3F8012800D108BD02F0D2FD6A
:1005A000FBE7000000B583B00D4B9A6942F00102F1
:1005B0009A619A6902F001020092009ADA6942F0A7
:1005C0008052DA61DB6903F080530193019B0022C2
:1005D0000F216FF0010000F083FE03B05DF804FB13
:1005E0000010024010B586B00023029303930493D9
:1005F00005930268164B9A4201D006B010BD03F570
:10060000D633DA6942F00072DA61DA6902F0007218
:100610000092009A9A6942F004029A619B6903F081
:1006200004030193019B4FF400630293094C02A958
:10063000204600F0E3FC4FF480530293022303931F
:100640000323059302A9204600F0D8FCD5E700BF9C
:10065000006400400008014010B586B000230293FA
:100660000393049305930268114B9A4201D006B09C
:1006700010BD104CA36943F00803A361A36903F004
:1006800008030093009BC0230293122303930323C8
:10069000059302A9084800F0B1FCE36943F4001394
:1006A000E361E36903F400130193019BDFE700BFFB
:1006B0000054004000100240000C014000B587B01B
:1006C000002302930393049305930268124B9A420A
:1006D00002D007B05DF804FB03F560439A6942F469
:1006E00080529A619A6902F480520092009A9A6943
:1006F00042F004029A619B6903F004030193019B99
:10070000A0230293022303930323059302A9034822
:1007100000F074FCDDE700BF00300140000801403C
:1007200010B586B0002302930393049305930268E7
:10073000174B9A4201D006B010BD03F558439A6991
:1007400042F480429A619A6902F480420092009ACF
:100750009A6942F004029A619B6903F004030193D1
:10076000019B4FF400730293022303930323059329
:10077000084C02A9204600F041FC4FF4806302932C
:1007800000230393049302A9204600F037FCD2E72C
:10079000003801400008014008B501224FF48051A3
:1007A000014800F047FDFEE700180140002800F076
:1007B000A18038B5044690F82030D3B12268136880
:1007C00043F00103136000F0DBF8054623685A6824
:1007D00012F0010F10D100F0D3F8401B0A28F5D910
:1007E000636A43F400336362052384F820300120F8
:1007F00038BDFFF7F7FEE1E71A6822F002021A603F
:1008000000F0BEF8054623685A6812F0020F0DD0BA
:1008100000F0B6F8401B0A28F5D9636A43F40033A8
:100820006362052384F820300120E1E7227E012A5B
:100830003DD01A6822F080021A60637E012B3BD003
:100840002268136823F040031360A37E012B39D084
:100850002268136823F020031360E37E012B37D056
:100860002268136843F010031360237F012B35D0F7
:100870002268136823F008031360637F012B33D0D1
:100880002268136823F004031360A368E26813432B
:1008900022691343626913436268013A2168134372
:1008A000CB6100206062012384F82030A0E71A6841
:1008B00042F080021A60C0E72268136843F04003E8
:1008C0001360C2E72268136843F020031360C4E793
:1008D0002268136823F010031360C6E722681368C8
:1008E00043F008031360C8E72268136843F0040369
:1008F0001360CAE70120704710B504460E4B1A7802
:100900004FF47A73B3FBF2F30C4A1068B0FBF3F0C8
:1009100000F0F6FC68B90F2C01D901200AE0002292
:1009200021464FF0FF3000F0DBFC054B1C6000203F
:1009300000E0012010BD00BF0000002008000020E2
:100940000400002008B5074A136843F01003136041
:10095000032000F0B3FC0F20FFF7CEFFFFF722FECD
:10096000002008BD00200240034A1168034B1B7899
:100970000B441360704700BF4C01002000000020B2
:10098000014B1868704700BF4C01002082B0084B33
:100990001B68084AA2FB03235B0A00FB03F30193D5
:1009A00000BF019B5A1E0192002BF9D102B0704783
:1009B00008000020D34D6210002800F0F18170B5CE
:1009C00082B00446036813F0010F2CD0994B5B688A
:1009D00003F00C03042B1DD0964B5B6803F00C0353
:1009E000082B12D06368B3F5803F41D0002B55D15E
:1009F00003F1804303F504331A6822F480321A604D
:100A00001A6822F480221A6037E08A4B5B6813F47C
:100A1000803FE7D0874B1B6813F4003F03D0636827
:100A2000002B00F0BF81236813F0020F75D0814BBB
:100A30005B6813F00C0F5FD07E4B5B6803F00C0318
:100A4000082B54D02369002B00F08A807A4B0122B6
:100A50001A60FFF795FF0546764B1B6813F0020FEF
:100A600075D1FFF78DFF401B0228F5D903209EE1C9
:100A7000704A136843F480331360636843B3FFF72D
:100A80007FFF05466B4B1B6813F4003FCBD1FFF78C
:100A900077FF401B6428F5D9032088E1B3F5A02F28
:100AA00009D0644B1A6822F480321A601A6822F462
:100AB00080221A60E1E703F18043A3F53C331A6812
:100AC00042F480221A601A6842F480321A60D4E735
:100AD000FFF756FF0546574B1B6813F4003FA2D0A3
:100AE000FFF74EFF401B6428F5D903205FE1514B0F
:100AF0005B6813F4803FA5D14E4B1B6813F0020FC7
:100B000003D02369012B40F04F814A4A136823F038
:100B1000F803616943EAC1031360236813F0080F07
:100B200033D0A369002B5CD0434B0122C3F880244F
:100B3000FFF726FF05463F4B5B6A13F0020F21D1FA
:100B4000FFF71EFF401B0228F5D903202FE1394A89
:100B5000136823F0F803616943EAC1031360DCE71B
:100B6000354B00221A60FFF70BFF0546314B1B681F
:100B700013F0020FD1D0FFF703FF401B0228F5D975
:100B8000032014E10120FFF701FF236813F0040F95
:100B900000F09680274BDB6913F0805F34D1254B42
:100BA000DA6942F08052DA61DB6903F08053019325
:100BB000019B0125214B1B6813F4807F26D0E3683D
:100BC000012B3DD0002B53D103F1804303F50433B7
:100BD0001A6A22F001021A621A6A22F004021A62E8
:100BE00033E0154B0022C3F88024FFF7C9FE054609
:100BF000104B5B6A13F0020FC7D0FFF7C1FE401B1A
:100C00000228F5D90320D2E00025D3E70B4A136868
:100C100043F480731360FFF7B3FE0646074B1B686F
:100C200013F4807FCBD1FFF7ABFE801B6428F5D98E
:100C30000320BCE00010024000004242007000406F
:100C40005F4A136A43F001031362E36833B3FFF7AB
:100C500097FE06465A4B1B6A13F0020F2FD1FFF77F
:100C60008FFE801B41F288339842F3D903209EE027
:100C7000052B09D0524B1A6A22F001021A621A6A35
:100C800022F004021A62E0E74D4B1A6A42F00402B5
:100C90001A621A6A42F001021A62D6E7FFF770FE82
:100CA0000646474B1B6A13F0020F08D0FFF768FE99
:100CB000801B41F288339842F3D9032077E0E5B9ED
:100CC000E369002B72D03E4A526802F00C02082AF7
:100CD00056D0022B17D03B4B00221A66FFF750FE6E
:100CE0000446374B1B6813F0007F47D0FFF748FEE0
:100CF000001B0228F5D9032059E0314AD36923F0BB
:100D00008053D361DCE72F4B00221A66FFF738FED1
:100D100005462B4B1B6813F0007F06D0FFF730FE13
:100D2000401B0228F5D9032041E0236AB3F5803F38
:100D30001AD023494B6823F47413226A606A024371
:100D400013434B601F4B01221A66FFF719FE04463E
:100D50001B4B1B6813F0007F0ED1FFF711FE001B29
:100D60000228F5D9032022E0154A536823F4003302
:100D7000A1680B435360DCE7002018E0002016E078
:100D8000012B16D00E4B5B6803F48031226A91422E
:100D900011D103F47013626A93420ED1002006E071
:100DA00001207047012002E0012000E0002002B095
:100DB00070BD0120FBE70120F9E70120F7E700BF44
:100DC000001002400000424286B0194B0FCB0DF1DB
:100DD000180C0CE90F0040F20123ADF80430154B5C
:100DE0005A6802F00C03042B1CD0082B1CD1C2F350
:100DF000834318336B4413F8100C12F4803F0DD06A
:100E00000C4B5B68C3F3404318336B4413F8143C3A
:100E1000094A02FB00F0B0FBF3F006E0074B03FBCE
:100E200000F002E0044800E0054806B0704700BF4B
:100E3000F0330008001002400024F40000093D00D7
:100E400000127A00002800F0A08070B50D4604461C
:100E5000524B1B6803F007038B420BD24F4A1368B7
:100E600023F007030B431360136803F007038B425F
:100E700040F08D80236813F0020F17D013F0040F99
:100E800004D0474A536843F4E0635360236813F087
:100E9000080F04D0424A536843F460535360404AF9
:100EA000536823F0F003A1680B435360236813F0E9
:100EB000010F31D06368012B20D0022B25D0384A96
:100EC000126812F0020F64D035494A6822F003021A
:100ED00013434B60FFF754FD0646314B5B6803F04C
:100EE0000C036268B3EB820F16D0FFF749FD801B3D
:100EF00041F288339842F0D9032045E0284A12682D
:100F000012F4003FE0D101203EE0254A126812F0C1
:100F1000007FD9D1012037E0204B1B6803F0070385
:100F2000AB420AD91D4A136823F007032B43136011
:100F3000136803F00703AB422DD1236813F0040FAD
:100F400006D0174A536823F4E063E1680B4353600B
:100F5000236813F0080F07D0114A536823F4605335
:100F6000216943EAC1035360FFF72EFF0C4B5B6816
:100F7000C3F303130B4AD35CD8400B4B18600B4BE5
:100F80001868FFF7B9FC002070BD012070470120F0
:100F9000FAE70120F8E70120F6E700BF0020024051
:100FA000001002400C34000808000020040000205B
:100FB000014B1868704700BF0800002008B5FFF714
:100FC000F7FF044B5B68C3F30223034AD35CD840AA
:100FD00008BD00BF001002400434000808B5FFF748
:100FE000E7FF044B5B68C3F3C223034AD35CD840DA
:100FF00008BD00BF001002400434000870B582B084
:101000000024A446ACE0854DAB4210D007D9844DF6
:10101000AB420CD005F58035AB4208D013E0A5F506
:101020008015AB4203D005F57025AB4207D18B6824
:10103000002B5FD0012B58D04261082403E0A5F5B6
:101040008015AB42F3D0BEF1FF0F55D806464FEAEC
:101050008C0233680F25954023EA050304FA02F257
:10106000134333604B6813F0805F77D06D4B9A6900
:1010700042F001029A619B6903F001030193019B15
:101080004FEA9C02951C684B53F825600CF0030551
:10109000AD000F23AB4026EA0306644B984232D0E2
:1010A00003F58063984200F0978003F580639842CF
:1010B00000F0948003F58063984200F0918003F57E
:1010C0008063984200F08E8003F58063984218D0C8
:1010D000062319E0CC68B6E7CC680434B3E7CC68E3
:1010E0000834B0E7CC680C34ADE702610824AAE705
:1010F0000024A8E70424A6E7061DACF1080292002C
:10110000A7E7052300E00023AB4033430232464DFE
:1011100045F822304B6813F4803F65D0444A136889
:1011200043EA0E0313604B6813F4003F62D0404A59
:10113000536843EA0E0353604B6813F4801F5FD07B
:101140003B4A936843EA0E0393604B6813F4001F15
:101150005CD0374AD36843EA0E03D3600CF1010C2C
:101160000B6833FA0CF257D0012202FA0CF203EAB0
:10117000020E32EA0303F1D14B68122B3FF643AF64
:10118000122B3FF660AF01A555F823F02F10000891
:10119000D5100008DF100008F11000084710000803
:1011A00047100008471000084710000847100008C3
:1011B00047100008471000084710000847100008B3
:1011C00047100008471000084710000847100008A3
:1011D000D9100008E5100008012395E7022393E7E2
:1011E000032391E704238FE7114A136823EA0E03D0
:1011F000136098E70E4A536823EA0E0353609BE797
:101200000B4A936823EA0E0393609EE7084AD3686B
:1012100023EA0E03D360A1E702B070BD00002210E4
:1012200000003110001002400000014000080140A1
:10123000000401400AB1016170470904016170476F
:10124000C36801EA030221EA030141EA02410161A4
:1012500070470000002808DB0901C9B200F16040B6
:1012600000F5614080F80013704700F00F0009019D
:10127000C9B2014B1954704714ED00E000B500F0FD
:101280000700C0F1070CBCF1040F28BF4FF0040C9D
:10129000031D062B0FD9C31E4FF0FF3E0EFA0CF0B4
:1012A00021EA000199400EFA03FE22EA0E0241EA09
:1012B00002005DF804FB0023EEE70000074AD36854
:1012C00023F4E0631B041B0C000200F4E060034302
:1012D00043F0BF6343F40033D360704700ED00E098
:1012E00010B50446054BD868C0F30220FFF7C6FFCF
:1012F00001462046FFF7AEFF10BD00BF00ED00E045
:101300000138B0F1807F0BD24FF0E0235861054ADD
:10131000F02182F823100020986107221A6170479B
:101320000120704700ED00E0002800F0CC8070B58F
:10133000044690F83D30002B77D0242384F83D30CC
:101340002268136823F0010313602268136843F4D2
:10135000004313602268136823F400431360FFF70F
:101360002DFE62685A4B9A4264D85A4B98428CBF01
:1013700000230123002B40F0A8805749A1FB003136
:101380008B0C25686A6822F03F0242EA91426A604B
:1013900021680A6A22F03F0266684D4DAE424FD87E
:1013A000013313430B622168CA6922F44F4222F0D1
:1013B000FF026568464B9D424CD8431E6D00B3FB4F
:1013C000F5F3013340F6FC70034278D0C3F30B030E
:1013D0001A43CA6121680B6823F0C003E269206ADE
:1013E000024313430B6021688B6823F4034323F00B
:1013F000FF032269E068024313438B602168CB68D6
:1014000023F0FF036269A06902431343CB602268A3
:10141000136843F00103136000202064202384F844
:101420003D30206384F83E0070BD80F83C30FFF70B
:1014300013F982E7294B98428CBF0023012399E7D7
:101440004FF4967505FB03F3254DA5FB03539B094C
:101450000133A6E7A668BEB9431E05EB450CB3FBF6
:10146000FCF30133C3F30B03B3FA83F35B0943BB10
:10147000C6B9431E05EB4505B3FBF5F30133C3F3D2
:101480000B0343F40043A3E7431E05EB850C0CEB71
:101490008C0CB3FBFCF30133C3F30B03B3FA83F3FC
:1014A0005B09E4E7431E05EB850505EB8505B3FB0A
:1014B000F5F30133C3F30B0343F4404388E70423FC
:1014C00086E7012384E7012070470120ACE700BFD5
:1014D000A08601007F841E0083DE1B43FF083D00C1
:1014E000D34D6210002856D010B50446436A33B974
:1014F0004368B3F5827F05D00023C36102E0002377
:10150000036143610023A36294F85130002B3CD067
:10151000022384F851302268136823F040031360DB
:10152000636803F48273A26802F404421343E2681E
:1015300002F400621343226902F00202134362695B
:1015400002F001021343A26902F400721343E2693C
:1015500002F038021343226A02F080021343A26AA7
:1015600002F40052216813430B60638B226803F07E
:10157000040353602268D36923F40063D36100201D
:101580006065012384F8513010BD84F85030204646
:10159000FFF794F8BCE701207047000010B504463F
:1015A0000268136923F44053C1680B4313618368D5
:1015B0000269134342691A430168CB6823F4B053AC
:1015C00023F00C031343CB600268536923F4407388
:1015D00081690B4353610268134B9A4220D0FFF795
:1015E000EDFC024602EB820202EB820263689B0082
:1015F000B2FBF3F20D48A0FB02314909642303FB5F
:1016000011231B013233A0FB03035B0903F0F0023B
:1016100002EB011203F00F03216813448B6010BD2D
:10162000FFF7DCFC0246DDE7003801401F85EB5187
:1016300058B310B5044690F83D300BB3242384F81A
:101640003D302268D36823F40053D3602046FFF76F
:10165000A5FF2268136923F490431361226853693C
:1016600023F02A0353612268D36843F40053D36004
:1016700000202064202384F83D3084F83E3010BDE3
:1016800080F83C30FFF74CF8D8E7012070477047EE
:1016900000F1080343604FF0FF328260C3600361D2
:1016A00000230360704700230361704743684B6069
:1016B0009A688A6051609960086103680133036029
:1016C000704730B40D68B5F1FF3F11D000F1080349
:1016D0001C465B681A68AA42FAD963684B60996035
:1016E0008C606160086103680133036030BC70473F
:1016F0000469F2E70369416882688A604168516061
:101700005A68824206D0002202611A68013A1A60C1
:101710001868704782685A60F5E710B5044601F012
:10172000B1FCA26BE36B9A4204D0002401F0CCFC24
:10173000204610BD0124F9E710B5044601F0A2FCD3
:10174000A36B23B9012401F0BFFC204610BD002487
:10175000F9E770B504461546866B026C5AB9036802
:101760001BB100200136A66370BD406800F0C6FFC3
:1017700000236360F6E76DB9806801F0EDFDA368B2
:10178000226C1344A3606268934219D32368A36058
:101790002846E7E7C06801F0DFFDE368226C5142AC
:1017A0009B1AE3602268934202D263680B44E360B1
:1017B000022D01D00020D5E726B1013E0020D1E75F
:1017C0002846CFE70020CDE708B50346026C62B19A
:1017D0000846D9681144D960D3F804C0614501D3E3
:1017E0001968D960D96801F0B7FD08BD38B505465C
:1017F00001F048FC95F8454064B201E0013C64B258
:10180000002C0ADD6B6A43B105F1240000F0CCFE28
:101810000028F3D000F05CFFF0E7FF2385F84530A7
:1018200001F052FC01F02EFC95F8444064B201E056
:10183000013C64B2002C0ADD2B6943B105F11000B4
:1018400000F0B2FE0028F3D000F042FFF0E7FF23E3
:1018500085F8443001F038FC38BD38B5E0B10D46AC
:10186000044601F00FFC2368E26B216C01FB02309F
:1018700060600020A063A360013A02FB0133E360D3
:10188000FF2384F8443084F84530FDB9236963B9F7
:1018900001F01AFC012038BD4FF0500383F311888A
:1018A000BFF36F8FBFF34F8FFEE704F1100000F01E
:1018B0007BFE0028ECD04FF0E0234FF08052C3F8BD
:1018C000042DBFF34F8FBFF36F8FE1E704F11000DA
:1018D000FFF7DEFE04F12400FFF7DAFED8E738B5A3
:1018E0001D46049C0B4649B92460E0632364012132
:1018F0002046FFF7B2FF84F84C5038BD2260F4E771
:1019000040B94FF0500383F31188BFF36F8FBFF3DB
:101910004F8FFEE710B584B01C46844653B192B198
:1019200089B94FF0500383F31188BFF36F8FBFF372
:101930004F8FFEE74FF0500383F31188BFF36F8F93
:10194000BFF34F8FFEE76AB150230393039B502BE5
:1019500013D04FF0500383F31188BFF36F8FBFF3A1
:101960004F8FFEE70029EFD04FF0500383F311882B
:10197000BFF36F8FBFF34F8FFEE7012384F846302C
:1019800000949DF818306046FFF7A9FF204604B088
:1019900010BDF0B585B0019288B10F461D460446D2
:1019A000B1B1022D20D1E36B012B1DD04FF05003BC
:1019B00083F31188BFF36F8FBFF34F8FFEE74FF0B4
:1019C000500383F31188BFF36F8FBFF34F8FFEE790
:1019D000036C002BE5D04FF0500383F31188BFF365
:1019E0006F8FBFF34F8FFEE700F078FE064658B9C1
:1019F000019B002B48D04FF0500383F31188BFF3B5
:101A00006F8FBFF34F8FFEE700263DE02A46394631
:101A10002046FFF79EFE636A7BB948B14FF0E02392
:101A20004FF08052C3F8042DBFF34F8FBFF36F8F79
:101A300001F04AFB012005B0F0BD04F1240000F0E4
:101A4000B3FD0028F4D04FF0E0234FF08052C3F8EC
:101A5000042DBFF34F8FBFF36F8FE9E701F034FB25
:101A60000020E8E702A800F0E5FD012619E00023C8
:101A700084F8443021E0002384F8453023E02046F8
:101A8000FFF7B4FE00F06EFC01F0FCFAA26BE36B12
:101A90009A42BBD3022DB9D0019B002BDED0002E81
:101AA000E0D001F011FB00F0C3FB01F0EBFA94F879
:101AB000442052B2B2F1FF3FD9D094F8452052B23F
:101AC000B2F1FF3FD7D001F0FFFA01A902A800F060
:101AD000BDFDD8B92046FFF720FE0028CFD00199E0
:101AE00004F1100000F02CFD2046FFF77FFE00F00F
:101AF00039FC0028C8D14FF0E0234FF08052C3F8E2
:101B0000042DBFF34F8FBFF36F8FBDE72046FFF764
:101B10006DFE00F027FC00208DE72DE9F84390B121
:101B20000F4616461C460546B1B1022C20D1EB6B80
:101B3000012B1DD04FF0500383F31188BFF36F8F3B
:101B4000BFF34F8FFEE74FF0500383F31188BFF3CD
:101B50006F8FBFF34F8FFEE7036C002BE5D04FF084
:101B6000500383F31188BFF36F8FBFF34F8FFEE7EE
:101B700001F072FBEFF311884FF0500383F31188EB
:101B8000BFF36F8FBFF34F8FAA6BEB6B9A4206D3F5
:101B9000022C04D0002088F31188BDE8F88395F862
:101BA00045904FFA89F9224639462846FFF7D1FD7C
:101BB000B9F1FF3F06D009F101035BB285F845306A
:101BC0000120E8E76B6A0BB90120E4E705F1240086
:101BD00000F0EAFC18B126B101203060DBE70120FB
:101BE000D9E70120D7E7F0B585B0019290B10F4653
:101BF0000446C1B100F072FD064600BB019B002BFC
:101C00005ED04FF0500383F31188BFF36F8FBFF3A3
:101C10004F8FFEE74FF0500383F31188BFF36F8FB0
:101C2000BFF34F8FFEE7036C002BE3D04FF0500360
:101C300083F31188BFF36F8FBFF34F8FFEE700264A
:101C40003EE039462046FFF7BFFD013DA56323690D
:101C500023B901F039FA012005B0F0BD04F11000FC
:101C600000F0A2FC0028F4D04FF0E0234FF08052A7
:101C7000C3F8042DBFF34F8FBFF36F8FE9E701F077
:101C800023FA0020E8E702A800F0D4FC012621E0B6
:101C9000002384F8443029E0002384F845302BE009
:101CA0002046FFF7A3FD00F05DFB09E02046FFF7AB
:101CB0009DFD00F057FB2046FFF73EFD00283FD179
:101CC00001F0E0F9A56B002DBBD1019B002BD6D014
:101CD000002ED8D001F0F8F900F0AAFA01F0D2F9FC
:101CE00094F844305BB2B3F1FF3FD1D094F8453063
:101CF0005BB2B3F1FF3FCFD001F0E6F901A902A832
:101D000000F0A4FC0028D1D12046FFF715FD0028E3
:101D1000C6D0019904F1240000F012FC2046FFF720
:101D200065FD00F01FFB0028CAD14FF0E0234FF003
:101D30008052C3F8042DBFF34F8FBFF36F8FBFE7FF
:101D4000002089E70023072B0CD8074A52F83320DC
:101D50000AB10133F7E7044A42F8331002EBC30239
:101D600050607047704700BF5001002070B50446B6
:101D70000D46164601F086F994F844305BB2B3F193
:101D8000FF3F0DD094F845305BB2B3F1FF3F0BD06D
:101D900001F09AF9A36B5BB12046FFF727FD70BDF8
:101DA000002384F84430EDE7002384F84530EFE762
:101DB0003246294604F1240000F0DAFBECE700008B
:101DC000084B1B681B6823B9074B4FF0FF321A60A2
:101DD0007047044B1B68DB68DB685A68024B1A606B
:101DE000704700BF00020020980100202DE9F04755
:101DF00080460D4617469946089EDDF824A00A9CA9
:101E00009200A521206B01F07AFA236B07F1804242
:101E1000013A03EB820727F007074FF0000CBCF1F3
:101E20000F0F09D815F80C3004EB0C0282F834308F
:101E300013B10CF1010CF2E7002384F84330372E84
:101E400000D93726E662E66400252565201DFFF7E8
:101E50002AFC04F11800FFF726FC2461C6F13806BD
:101E6000A6616462656584F858504A464146384622
:101E700001F0E0F82060BAF1000F01D0CAF800408C
:101E8000BDE8F08738B5002407E004EB8402930036
:101E90000E481844FFF7FCFB0134372CF5D90C4DE4
:101EA0002846FFF7F5FB0B4C2046FFF7F1FB0A48ED
:101EB000FFF7EEFB0948FFF7EBFB0948FFF7E8FBEC
:101EC000084B1D60084B1C6038BD00BF2C02002071
:101ED0001802002004020020E8010020D4010020A4
:101EE000BC01002000020020FC01002010B50446C7
:101EF00001F0C8F8224A136801331360214B1B68B4
:101F00005BB1214B1B686BB91E4B1B68DA6AE36A35
:101F10009A4207D81B4B1C6004E01A4B1C601368E4
:101F2000012B29D0194A1368013313606364E06AF6
:101F3000174B1B68984201D9154B186000EB8000C5
:101F4000211D144B03EB8000FFF7B0FB01F0BCF840
:101F50000D4B1B687BB10B4B1B68DA6AE36A9A4234
:101F600009D24FF0E0234FF08052C3F8042DBFF3A5
:101F70004F8FBFF36F8F10BDFFF784FFD2E700BF15
:101F8000B80100208C060020AC0100209C0100203C
:101F9000B00100202C02002010B5044690F8593002
:101FA00063B1012B11D0022B0ED04FF0500383F3FD
:101FB0001188BFF36F8FBFF34F8FFEE7006B00F008
:101FC000D1FF204600F0CEFF10BD00F0CBFFFBE7B5
:101FD0000F4B1B68D3B110B501F054F80D4BDB6803
:101FE000DC68201DFFF786FB0B4A1368013B13607A
:101FF000074A1368013B136001F066F82046FFF7BB
:10200000CBFF034B1B68002BE6D110BD704700BF10
:10201000D0010020D4010020B801002008B5FFF74E
:10202000D7FF074B1B68012BF9D94FF0E0234FF086
:102030008052C3F8042DBFF34F8FBFF36F8FEEE7CD
:102040002C02002070B504460D46174B1E68174B36
:1020500018680430FFF74EFBB4F1FF3F0DD0344455
:10206000124B1B685C60A64210D9114B18680F4BCD
:1020700019680431FFF725FB70BD002DEFD00B4B25
:10208000196804310B48FFF711FBF5E70A4B186894
:10209000064B19680431FFF714FB084B1B68A34279
:1020A000EAD9064B1C60E7E7B40100208C0600204B
:1020B000FC010020BC01002000020020980100204B
:1020C00030B587B00B9C7CB10C9DB5B15C250495F7
:1020D000049D5C2D1AD04FF0500383F31188BFF399
:1020E0006F8FBFF34F8FFEE74FF0500383F31188DC
:1020F000BFF36F8FBFF34F8FFEE74FF0500383F3B3
:102100001188BFF36F8FBFF34F8FFEE70C9D2C63D9
:10211000022485F8594000240394029505AC0194EB
:102120000A9C0094FFF762FE0C98FFF7DFFE05980B
:1021300007B030BD2DE9F04385B007468846144608
:102140001E46900000F092FE08B381465C2000F02D
:102150008DFE0546A8B1C0F83090002380F85930B4
:10216000039302900D9B01930C9B009333462246F0
:1021700041463846FFF73AFE2846FFF7B7FE0120F2
:1021800007E0484600F0EEFE4FF0FF3001E04FF070
:10219000FF3005B0BDE8F08310B588B00024059489
:1021A000069407AA06A905A800F0E6FD059B029380
:1021B000069B019300942346079A17491748FFF797
:1021C0007FFF174B1860C0B100F04CFB012815D100
:1021D0004FF0500383F31188BFF36F8FBFF34F8F1E
:1021E000104B4FF0FF321A600F4B01221A600F4B59
:1021F00000221A6000F0D0FF03E00020B0F1FF3FA2
:1022000001D008B010BD4FF0500383F31188BFF325
:102210006F8FBFF34F8FFEE71C3400081D200008AE
:102220009401002098010020AC010020B40100209E
:10223000024A136801331360704700BF9001002009
:10224000014B1868704700BFB4010020F8B53A4B45
:102250001B68002B64D1394B1D6801351D60C5B961
:10226000374B1B681B6843B14FF0500383F3118851
:10227000BFF36F8FBFF34F8FFEE7314A1168314BC9
:10228000186810601960304A136801331360FFF753
:1022900097FD2E4B1B68AB4238D900272C4B1B688F
:1022A000DB6A03EB83039A002A4B9B58012B3CD932
:1022B00001273AE00127224B1B681B6843B3204BE0
:1022C0001B68DB68DC6863689D4226D3261D3046A8
:1022D000FFF710FAA36A1BB104F11800FFF70AFA1E
:1022E000E36A1D4A1268934201D91B4A136003EB4B
:1022F00083039A00314617481044FFF7D7F9E26A82
:10230000134B1B68DB6A9A42D4D2D4E70027D2E78A
:102310000E4B4FF0FF321A60C0E70C4A1360BDE766
:102320000E4A13680133136000270D4B1B6803B17D
:1023300001273846F8BD00BF90010020B4010020FD
:1023400000020020FC010020A001002098010020D4
:102350008C0600202C020020B0010020A8010020E3
:10236000A401002038B5354B1B6843B94FF050032A
:1023700083F31188BFF36F8FBFF34F8FFEE700F039
:1023800081FE2E4B1A68013A1A601B68002B4FD150
:102390002B4B1B680BB900244BE00024294B1B6816
:1023A0001BB3284BDB68DC6804F11800FFF7A2F9C7
:1023B000251D2846FFF79EF9E06A234B1B689842CB
:1023C00001D9214B186000EB800029461F4B03EB1D
:1023D0008000FFF76BF9E26A1D4B1B68DB6A9A42CB
:1023E000DCD31C4B01221A60D8E70CB1FFF7E8FCE4
:1023F000194B1C6884B9174B1C68D4B14FF0E0230B
:102400004FF08052C3F8042DBFF34F8FBFF36F8F8F
:1024100001240EE0013C07D0FFF718FF0028F9D097
:102420000C4B01221A60F5E70B4B00221A60E2E721
:10243000002400F049FE204638BD00BF9001002076
:10244000B8010020E8010020B00100202C0200208B
:102450008C060020A4010020A801002010B5A8B11E
:102460000446104B1B6843B14FF0500383F31188AF
:10247000BFF36F8FBFF34F8FFEE7FFF7D9FE002149
:102480002046FFF7DFFDFFF76DFF48B94FF0E0236F
:102490004FF08052C3F8042DBFF34F8FBFF36F8FFF
:1024A00010BD00BF90010020204B1B681BB1204BCA
:1024B00001221A6070471E4B00221A601D4B1B68D8
:1024C00003EB83018A001C498A585AB90BB1013BBE
:1024D000F6E74FF0500383F31188BFF36F8FBFF31C
:1024E0004F8FFEE7084603EB83018A0002445168E0
:1024F0004968516003EB830C4FEA8C0208320244B6
:1025000091420BD003EB830291000B4A0A445268BC
:10251000D1680A4A1160074A1360704748686246EA
:102520009100054A0A445060ECE700BF900100208A
:10253000A4010020B00100202C0200208C06002005
:1025400058B110B50C46094A11681831FFF7B9F8AF
:1025500001212046FFF776FD10BD4FF0500383F3B5
:102560001188BFF36F8FBFF34F8FFEE78C060020FB
:1025700038B570B10D4614460A4A11681831FFF794
:1025800095F80CB14FF0FF3521462846FFF75AFD6C
:1025900038BD4FF0500383F31188BFF36F8FBFF343
:1025A0004F8FFEE78C06002038B5C368DC6824B383
:1025B00004F118052846FFF79DF8184B1B682BBB44
:1025C000251D2846FFF796F8E06A154B1B689842D0
:1025D00001D9134B186000EB80002946114B03EB27
:1025E0008000FFF763F8E26A0F4B1B68DB6A9A42D0
:1025F00011D901200D4B186038BD4FF0500383F303
:102600001188BFF36F8FBFF34F8FFEE7294608484D
:10261000FFF74CF8E7E70020EEE700BF900100204D
:10262000B00100202C0200208C060020A401002014
:10263000E8010020034B1B680360034B1B684360E9
:10264000704700BFA0010020B4010020D8B170B5D0
:102650000C46054601B300F015FD1B4B19686B686D
:10266000C81A2268B2F1FF3F27D0184E3668D5F855
:1026700000C0B44501D08B4224D9824215D8002332
:10268000236001241AE04FF0500383F31188BFF355
:102690006F8FBFF34F8FFEE74FF0500383F3118826
:1026A000BFF36F8FBFF34F8FFEE75B1A13442360B6
:1026B0002846FFF7BFFF002400E0002400F004FDDF
:1026C000204670BD0124F9E7B4010020A0010020DC
:1026D000014B01221A607047A4010020054B1B68C2
:1026E00033B1054B1B680BB10020704702207047C7
:1026F00001207047AC0100209001002000283BD051
:1027000038B504461E4B1B68834208D04FF0500377
:1027100083F31188BFF36F8FBFF34F8FFEE7036D15
:1027200043B94FF0500383F31188BFF36F8FBFF3AA
:102730004F8FFEE7013B0365C16AC26C91421DD019
:102740000BB1002038BD051D2846FEF7D3FFE06C15
:10275000E062C0F13803A3610A4B1B68984201D9BB
:10276000084B186000EB80002946074B03EB800004
:10277000FEF79CFF0120E5E7002070470020E1E71D
:102780008C060020B00100202C020020064B1A68A5
:102790001368B3FA83F35B09036013B9D36818684D
:1027A00070470020704700BF9007002008B54160C7
:1027B000006191420CD8D21A83699A4201D3012058
:1027C00008BD011D094B1868FEF77BFF0020F7E7E5
:1027D0009A4201D2994206D2011D054B1868FEF7B4
:1027E00070FF0020ECE70120EAE700BF8C07002023
:1027F0009007002030B583B000F044FC114B1B68FB
:102800001BB100F061FC03B030BD0F4D2846FEF750
:102810003FFF0E4C2046FEF73BFF0D4B1D600D4B5E
:102820001C60002300930C4B0C4A10210A20FFF778
:1028300067F8044B18600028E3D00949FFF782FAD3
:10284000DFE700BF88070020A807002094070020CA
:10285000900700208C07002090060020E006002052
:102860002434000810B588B0FFF7C4FF124B1B6872
:10287000CBB100240594069407AA06A905A800F088
:1028800087FA059B0293069B01930223009323463C
:10289000079A0A490A48FFF713FC0A4B186010B15F
:1028A000012008B010BD4FF0500383F31188BFF32F
:1028B0006F8FBFF34F8FFEE7880700202C3400088E
:1028C000A12B000884070020B8B19C460346184895
:1028D000006858B300B585B00091019202930529B4
:1028E0001CDCFFF7FBFE022810D000231A466946C5
:1028F0000F480068FFF74DF815E04FF0500383F3E1
:102900001188BFF36F8FBFF34F8FFEE70023069A46
:10291000694607480068FFF73CF804E00023624678
:102920006946FFF7FAF805B05DF804FB0020704730
:102930008807002070B582B01A4B1B681A6852B322
:10294000DB681E68DC68251D2846FEF7D3FE636A37
:1029500020469847E369012BEED1A36933449E4298
:1029600007D26360246129460E4B1868FEF7A9FE62
:10297000E2E7002100910B4632462046FFF7A4FF14
:102980000028D9D14FF0500383F31188BFF36F8F24
:10299000BFF34F8FFEE7044A1068024908601360D6
:1029A00002B070BD900700208C07002038B50546A6
:1029B000FFF746FC0446074B1B68834205D80023FB
:1029C0002B60044B1C60204638BDFFF7B3FF01238A
:1029D0002B60F6E78007002070B582B006460D46F2
:1029E00014490968C968CC68201DFEF783FEE169B7
:1029F000012904D0636A2046984702B070BDA169DE
:102A000033462A4631442046FFF7D0FE0028F1D055
:102A1000002100910B4632462046FFF755FF002863
:102A2000E8D14FF0500383F31188BFF36F8FBFF3EA
:102A30004F8FFEE79007002070B582B006460C4627
:102A4000FFF7F6FB01A8FFF7B1FF019B23BB05468B
:102A500044B9B0420CD3FFF785FC29463046FFF756
:102A6000BBFF1BE00E4B1B681C68B4FA84F46409BE
:102A70002246711B0B4B1868FFF778F9FFF772FCC1
:102A800060B94FF0E0234FF08052C3F8042DBFF33C
:102A90004F8FBFF36F8F01E0FFF764FC02B070BD92
:102AA0008C0700208807002010B588B002E0049B46
:102AB000002B0FDA002204A9384B1868FFF793F8AF
:102AC000002869D0049B002BF1DA07990698059B32
:102AD0009847ECE7069C636913B1201DFEF70AFED8
:102AE00003A8FFF763FF049B092BE3D801A252F868
:102AF00023F000BF1D2B00081D2B00081D2B000814
:102B0000B52A0008632B0008892B00081D2B00083C
:102B10001D2B0008B52A0008632B0008059BA1693E
:102B2000024619442046FFF741FE0028C2D0636ADE
:102B300020469847E369012BBCD1A269002100918E
:102B40000B46059802442046FFF7BEFE0028B1D18F
:102B50004FF0500383F31188BFF36F8FBFF34F8F94
:102B6000FEE70599A16131B10346024601442046C2
:102B7000FFF71CFE9EE74FF0500383F31188BFF36D
:102B80006F8FBFF34F8FFEE794F82C30002B91D15D
:102B9000204600F0E7F98DE708B010BD8807002057
:102BA00000B583B001A8FFF7F1FD0199FFF744FFDD
:102BB000FFF77AFFF6E70000EFF3058393B9EFF331
:102BC000108393B90C4B1868022804D080B90A4BC3
:102BD00001221A607047EFF31183002BF6D06FF0DB
:102BE000050070476FF0050070476FF005007047F3
:102BF0004FF0FF30704700BF740E002008B5EFF3B0
:102C00000583B3B9EFF31083B3B90E4B1B68022BE6
:102C100008D0012B13D10B4B02221A60FFF7BCFA2C
:102C2000002008BDEFF31182002AF2D06FF00500FA
:102C3000F7E76FF00500F4E76FF00500F1E74FF0FC
:102C4000FF30EEE7740E0020F0B587B00024049446
:102C5000EFF30584002C43D1EFF31083002B3FD119
:102C6000334B1B68022B16D0002839D000238DF877
:102C7000173062B3156895B1936903B918235C1EC8
:102C8000372C51D8546814F0010F4FD156694EB10A
:102C90004FEA960C08E0EFF311830BBBE4E70DF16C
:102CA0001705E9E74FF0800C94682CB1D7685B2FCB
:102CB00002D9176907B1B6B914B14FF0FF340CE06F
:102CC000D46894B914699CB14FF0FF3405E0002436
:102CD00018234FF0800C0DF11705012C0AD0ACB170
:102CE000049807B0F0BD0124F7E74FF0FF34F4E794
:102CF0000024F2E7146992680292019400930B4653
:102D000062462946FFF7DCF90490E9E704AA01923C
:102D100000930B461FFA8CF22946FFF70BFA0128A5
:102D2000DED000230493DBE70020DAE70020D8E7B9
:102D3000740E002008B5EFF30583A3B9EFF31083F9
:102D4000A3B90C4B1B68022B02D040B9002008BD70
:102D5000EFF31183002BF8D06FF00500F7E7FFF7D2
:102D60007DFB0020F3E76FF00500F0E76FF0050052
:102D7000EDE700BF740E0020034B0360034B0B60B4
:102D800080231360704700BF180E0020180C00202D
:102D9000034B0360034B0B604FF480731360704769
:102DA000BC0B0020BC070020124A12F0070F1ED0F7
:102DB000D11D21F00701C1F5406313440A460E48B6
:102DC0000260002141601344083B23F007030B48D5
:102DD000036059601960991A51601360084B1960BB
:102DE000084B1960084B4FF000421A6070474FF4CF
:102DF0004063E4E7900E0020880E0020840E00203F
:102E00007C0E0020800E0020780E0020154B1A4604
:102E10001B688342FBD3516802EB010C844509D047
:102E2000416800EB010C634509D00360904218D063
:102E3000106070474068014451601046F0E710B4DC
:102E4000094C2468A3420AD05B68194441601368A6
:102E50001B680360904200D0106010BC7047046093
:102E6000F8E77047880E0020840E002038B504462D
:102E7000FFF7DEF9364B1B68B3B1364B1B681C42BB
:102E80004CD1002C4CD004F1080214F0070F02D0F2
:102E900022F007020832002A51D02F4B1B689342C0
:102EA0004FD32E490C6804E0FFF77EFFE5E721468B
:102EB0001C466368934202D22368002BF7D1244B4F
:102EC0001B68A3423FD00D68083523680B60636818
:102ED0009B1A102B10D9A01810F0070F08D04FF034
:102EE000500383F31188BFF36F8FBFF34F8FFEE75B
:102EF00043606260FFF78AFF626817490B689B1A9C
:102F00000B60174909688B4201D215490B60114BC0
:102F10001B68134363600023236002E0002500E088
:102F20000025FFF71FFA15F0070F0ED04FF05003E2
:102F300083F31188BFF36F8FBFF34F8FFEE7002538
:102F4000EFE70025EDE70025EBE7284638BD00BF99
:102F5000840E0020780E0020800E0020880E0020B5
:102F60007C0E002080B338B50446A0F1080550F867
:102F7000043C164A1268134208D14FF0500383F301
:102F80001188BFF36F8FBFF34F8FFEE750F8081C17
:102F900041B14FF0500383F31188BFF36F8FBFF33C
:102FA0004F8FFEE723EA020340F8043CFFF740F9A5
:102FB00054F8041C064A13680B4413602846FFF7B4
:102FC00025FFFFF7CFF938BD704700BF780E00200E
:102FD000800E002082B0002301930D4B1B68B3F1DB
:102FE000FF3F08D04FF0500383F31188BFF36F8F7A
:102FF000BFF34F8FFEE74FF0500383F31188BFF309
:103000006F8FBFF34F8F019B002BFCD002B0704736
:103010000C00002006480068006880F3088862B64B
:1030200061B6BFF34F8FBFF36F8F00DF00BF0000AB
:1030300008ED00E04FF0807340F8043C21F00101FE
:1030400040F8081C034B40F80C3C40F8202C40385A
:10305000704700BFD52F00080000000000000000EE
:10306000074B19680868B0E8F00F80F30988BFF3D0
:103070006F8F4FF0000080F311884EF00D0E7047F7
:103080008C0600204FF0500383F31188BFF36F8F3D
:10309000BFF34F8F0B4A136801331360012B00D02D
:1030A00070474FF0E023D3F8043D13F0FF0FF7D043
:1030B0004FF0500383F31188BFF36F8FBFF34F8F2F
:1030C000FEE700BF0C000020094B1B6843B94FF01E
:1030D000500383F31188BFF36F8FBFF34F8FFEE769
:1030E000013B034A13600BB983F31188704700BF9B
:1030F0000C000020000000000000000000000000A4
:10310000EFF30980BFF36F8F0D4B1A6820E9F00FC2
:1031100010602DE908404FF0500080F31188FFF750
:10312000C3F94FF0000080F31188BDE8084019682A
:103130000868B0E8F00F80F30988BFF36F8F70471D
:103140008C06002008B54FF0500383F31188BFF3BD
:103150006F8FBFF34F8FFFF779F828B14FF0E0235F
:103160004FF08052C3F8042D002383F3118808BD6B
:103170004FF0E022002313619361054B1B68054962
:10318000A1FB03139B09013B5361072313617047A4
:1031900008000020D34D621010B582B02A4B1A7877
:1031A000D2B20192FF221A701B78DBB28DF8033085
:1031B0009DF8033003F05003244A1370244B072278
:1031C0001A6009E0224A1368013B13609DF803303E
:1031D0005B00DBB28DF803309DF8033013F0800FF5
:1031E000F0D11B4B1B68032B08D04FF0500383F327
:1031F0001188BFF36F8FBFF34F8FFEE71B02144A96
:10320000136003F4E0631360019BDBB20E4A13709A
:103210004FF0E023D3F8202D42F47002C3F8202DA4
:10322000D3F8202D42F07042C3F8202DFFF7A0FF05
:103230000024084B1C60FFF7EDFEFFF735F9FFF7A0
:10324000C9FE204602B010BD00E400E0941A002040
:10325000901A00200C000020EFF305830F2B0FD9EC
:10326000114A9B5CDBB2114A12789A4208D94FF09E
:10327000500383F31188BFF36F8FBFF34F8FFEE7C7
:103280004FF0E023D3F80C3D03F4E063084A1268E2
:10329000934208D94FF0500383F31188BFF36F8F27
:1032A000BFF34F8FFEE77047F0E300E0941A002071
:1032B000901A00200C480D490D4A002302E0D45812
:1032C000C4500433C4188C42F9D30A4A0A4C002370
:1032D00001E013600432A242FBD3FEF7D8F900F0FC
:1032E00017F8FDF71FF970470000002010000020BC
:1032F0003C34000810000020981A0020FEE7034626
:103300000244934200D1704703F8011BF9E7000023
:1033100070B500260C4D0D4C641BA410A64209D1BB
:1033200000F028F800260A4D0A4C641BA410A6429F
:1033300005D170BD55F8043B98470136EEE755F8C6
:10334000043B98470136F2E734340008343400086F
:1033500034340008383400080A44914200F1FF3345
:1033600000D1704710B511F8014B914203F8014F9D
:10337000F9D110BDF8B500BFF8BC08BC9E46704737
:0C338000F8B500BFF8BC08BC9E467047C2
:10338C0064617368626F6172645461736B000000F6
:10339C0064656661756C745461736B008C330008E2
:1033AC000000000000000000000000000000000011
:1033BC0000020000080000000000000000000000F7
:1033CC009C3300080000000000000000000000001A
:1033DC0000000000000200001800000000000000C7
:1033EC000000000002030405060708090A0B0C0D77
:1033FC000E0F10100000000000000000010203047A
:10340C000000000000000000010203040607080988
:10341C0049444C4500000000546D725100000000FE
:08342C00546D72205376630019
:043434001502000875
:04343800F101000896
:10343C0001000000100000000024F400AAAAAAAAAF
:04000005080032B508
:00000001FF
